{
  "contractName": "Creature",
  "abi": [
    {
      "inputs": [
        {
          "internalType": "address",
          "name": "_proxyRegistryAddress",
          "type": "address"
        }
      ],
      "stateMutability": "nonpayable",
      "type": "constructor"
    },
    {
      "anonymous": false,
      "inputs": [
        {
          "indexed": true,
          "internalType": "address",
          "name": "owner",
          "type": "address"
        },
        {
          "indexed": true,
          "internalType": "address",
          "name": "approved",
          "type": "address"
        },
        {
          "indexed": true,
          "internalType": "uint256",
          "name": "tokenId",
          "type": "uint256"
        }
      ],
      "name": "Approval",
      "type": "event"
    },
    {
      "anonymous": false,
      "inputs": [
        {
          "indexed": true,
          "internalType": "address",
          "name": "owner",
          "type": "address"
        },
        {
          "indexed": true,
          "internalType": "address",
          "name": "operator",
          "type": "address"
        },
        {
          "indexed": false,
          "internalType": "bool",
          "name": "approved",
          "type": "bool"
        }
      ],
      "name": "ApprovalForAll",
      "type": "event"
    },
    {
      "anonymous": false,
      "inputs": [
        {
          "indexed": true,
          "internalType": "address",
          "name": "previousOwner",
          "type": "address"
        },
        {
          "indexed": true,
          "internalType": "address",
          "name": "newOwner",
          "type": "address"
        }
      ],
      "name": "OwnershipTransferred",
      "type": "event"
    },
    {
      "anonymous": false,
      "inputs": [
        {
          "indexed": true,
          "internalType": "address",
          "name": "from",
          "type": "address"
        },
        {
          "indexed": true,
          "internalType": "address",
          "name": "to",
          "type": "address"
        },
        {
          "indexed": true,
          "internalType": "uint256",
          "name": "tokenId",
          "type": "uint256"
        }
      ],
      "name": "Transfer",
      "type": "event"
    },
    {
      "inputs": [
        {
          "internalType": "address",
          "name": "to",
          "type": "address"
        },
        {
          "internalType": "uint256",
          "name": "tokenId",
          "type": "uint256"
        }
      ],
      "name": "approve",
      "outputs": [],
      "stateMutability": "nonpayable",
      "type": "function"
    },
    {
      "inputs": [
        {
          "internalType": "address",
          "name": "owner",
          "type": "address"
        }
      ],
      "name": "balanceOf",
      "outputs": [
        {
          "internalType": "uint256",
          "name": "",
          "type": "uint256"
        }
      ],
      "stateMutability": "view",
      "type": "function"
    },
    {
      "inputs": [],
      "name": "baseURI",
      "outputs": [
        {
          "internalType": "string",
          "name": "",
          "type": "string"
        }
      ],
      "stateMutability": "view",
      "type": "function"
    },
    {
      "inputs": [
        {
          "internalType": "uint256",
          "name": "tokenId",
          "type": "uint256"
        }
      ],
      "name": "getApproved",
      "outputs": [
        {
          "internalType": "address",
          "name": "",
          "type": "address"
        }
      ],
      "stateMutability": "view",
      "type": "function"
    },
    {
      "inputs": [
        {
          "internalType": "address",
          "name": "owner",
          "type": "address"
        },
        {
          "internalType": "address",
          "name": "operator",
          "type": "address"
        }
      ],
      "name": "isApprovedForAll",
      "outputs": [
        {
          "internalType": "bool",
          "name": "",
          "type": "bool"
        }
      ],
      "stateMutability": "view",
      "type": "function"
    },
    {
      "inputs": [
        {
          "internalType": "address",
          "name": "_to",
          "type": "address"
        }
      ],
      "name": "mintTo",
      "outputs": [],
      "stateMutability": "nonpayable",
      "type": "function"
    },
    {
      "inputs": [],
      "name": "name",
      "outputs": [
        {
          "internalType": "string",
          "name": "",
          "type": "string"
        }
      ],
      "stateMutability": "view",
      "type": "function"
    },
    {
      "inputs": [],
      "name": "owner",
      "outputs": [
        {
          "internalType": "address",
          "name": "",
          "type": "address"
        }
      ],
      "stateMutability": "view",
      "type": "function"
    },
    {
      "inputs": [
        {
          "internalType": "uint256",
          "name": "tokenId",
          "type": "uint256"
        }
      ],
      "name": "ownerOf",
      "outputs": [
        {
          "internalType": "address",
          "name": "",
          "type": "address"
        }
      ],
      "stateMutability": "view",
      "type": "function"
    },
    {
      "inputs": [],
      "name": "renounceOwnership",
      "outputs": [],
      "stateMutability": "nonpayable",
      "type": "function"
    },
    {
      "inputs": [
        {
          "internalType": "address",
          "name": "from",
          "type": "address"
        },
        {
          "internalType": "address",
          "name": "to",
          "type": "address"
        },
        {
          "internalType": "uint256",
          "name": "tokenId",
          "type": "uint256"
        }
      ],
      "name": "safeTransferFrom",
      "outputs": [],
      "stateMutability": "nonpayable",
      "type": "function"
    },
    {
      "inputs": [
        {
          "internalType": "address",
          "name": "from",
          "type": "address"
        },
        {
          "internalType": "address",
          "name": "to",
          "type": "address"
        },
        {
          "internalType": "uint256",
          "name": "tokenId",
          "type": "uint256"
        },
        {
          "internalType": "bytes",
          "name": "_data",
          "type": "bytes"
        }
      ],
      "name": "safeTransferFrom",
      "outputs": [],
      "stateMutability": "nonpayable",
      "type": "function"
    },
    {
      "inputs": [
        {
          "internalType": "address",
          "name": "operator",
          "type": "address"
        },
        {
          "internalType": "bool",
          "name": "approved",
          "type": "bool"
        }
      ],
      "name": "setApprovalForAll",
      "outputs": [],
      "stateMutability": "nonpayable",
      "type": "function"
    },
    {
      "inputs": [
        {
          "internalType": "bytes4",
          "name": "interfaceId",
          "type": "bytes4"
        }
      ],
      "name": "supportsInterface",
      "outputs": [
        {
          "internalType": "bool",
          "name": "",
          "type": "bool"
        }
      ],
      "stateMutability": "view",
      "type": "function"
    },
    {
      "inputs": [],
      "name": "symbol",
      "outputs": [
        {
          "internalType": "string",
          "name": "",
          "type": "string"
        }
      ],
      "stateMutability": "view",
      "type": "function"
    },
    {
      "inputs": [
        {
          "internalType": "uint256",
          "name": "index",
          "type": "uint256"
        }
      ],
      "name": "tokenByIndex",
      "outputs": [
        {
          "internalType": "uint256",
          "name": "",
          "type": "uint256"
        }
      ],
      "stateMutability": "view",
      "type": "function"
    },
    {
      "inputs": [
        {
          "internalType": "address",
          "name": "owner",
          "type": "address"
        },
        {
          "internalType": "uint256",
          "name": "index",
          "type": "uint256"
        }
      ],
      "name": "tokenOfOwnerByIndex",
      "outputs": [
        {
          "internalType": "uint256",
          "name": "",
          "type": "uint256"
        }
      ],
      "stateMutability": "view",
      "type": "function"
    },
    {
      "inputs": [
        {
          "internalType": "uint256",
          "name": "_tokenId",
          "type": "uint256"
        }
      ],
      "name": "tokenURI",
      "outputs": [
        {
          "internalType": "string",
          "name": "",
          "type": "string"
        }
      ],
      "stateMutability": "view",
      "type": "function"
    },
    {
      "inputs": [],
      "name": "totalSupply",
      "outputs": [
        {
          "internalType": "uint256",
          "name": "",
          "type": "uint256"
        }
      ],
      "stateMutability": "view",
      "type": "function"
    },
    {
      "inputs": [
        {
          "internalType": "address",
          "name": "from",
          "type": "address"
        },
        {
          "internalType": "address",
          "name": "to",
          "type": "address"
        },
        {
          "internalType": "uint256",
          "name": "tokenId",
          "type": "uint256"
        }
      ],
      "name": "transferFrom",
      "outputs": [],
      "stateMutability": "nonpayable",
      "type": "function"
    },
    {
      "inputs": [
        {
          "internalType": "address",
          "name": "newOwner",
          "type": "address"
        }
      ],
      "name": "transferOwnership",
      "outputs": [],
      "stateMutability": "nonpayable",
      "type": "function"
    },
    {
      "inputs": [],
      "name": "baseTokenURI",
      "outputs": [
        {
          "internalType": "string",
          "name": "",
          "type": "string"
        }
      ],
      "stateMutability": "pure",
      "type": "function"
    }
  ],
  "bytecode": "0x60806040526000600c553480156200001657600080fd5b506040516200338338038062003383833981810160405260208110156200003c57600080fd5b81019080805190602001909291905050506040518060400160405280600881526020017f464d41546f6b656e0000000000000000000000000000000000000000000000008152506040518060400160405280600381526020017f5359530000000000000000000000000000000000000000000000000000000000815250828282620000d46301ffc9a760e01b6200024c60201b60201c565b8160069080519060200190620000ec9291906200035d565b508060079080519060200190620001059291906200035d565b506200011e6380ac58cd60e01b6200024c60201b60201c565b62000136635b5e139f60e01b6200024c60201b60201c565b6200014e63780e9d6360e01b6200024c60201b60201c565b50506000620001626200035560201b60201c565b905080600a60006101000a81548173ffffffffffffffffffffffffffffffffffffffff021916908373ffffffffffffffffffffffffffffffffffffffff1602179055508073ffffffffffffffffffffffffffffffffffffffff16600073ffffffffffffffffffffffffffffffffffffffff167f8be0079c531659141344cd1fd0a4f28419497f9722a3daafe3b4186f6b6457e060405160405180910390a35080600b60006101000a81548173ffffffffffffffffffffffffffffffffffffffff021916908373ffffffffffffffffffffffffffffffffffffffff1602179055505050505062000413565b63ffffffff60e01b817bffffffffffffffffffffffffffffffffffffffffffffffffffffffff19161415620002e9576040517f08c379a000000000000000000000000000000000000000000000000000000000815260040180806020018281038252601c8152602001807f4552433136353a20696e76616c696420696e746572666163652069640000000081525060200191505060405180910390fd5b6001600080837bffffffffffffffffffffffffffffffffffffffffffffffffffffffff19167bffffffffffffffffffffffffffffffffffffffffffffffffffffffff1916815260200190815260200160002060006101000a81548160ff02191690831515021790555050565b600033905090565b828054600181600116156101000203166002900490600052602060002090601f016020900481019282620003955760008555620003e1565b82601f10620003b057805160ff1916838001178555620003e1565b82800160010185558215620003e1579182015b82811115620003e0578251825591602001919060010190620003c3565b5b509050620003f09190620003f4565b5090565b5b808211156200040f576000816000905550600101620003f5565b5090565b612f6080620004236000396000f3fe608060405234801561001057600080fd5b50600436106101425760003560e01c806370a08231116100b8578063a22cb4651161007c578063a22cb465146106a9578063b88d4fde146106f9578063c87b56dd146107fe578063d547cfb7146108a5578063e985e9c514610928578063f2fde38b146109a257610142565b806370a082311461054c578063715018a6146105a4578063755edd17146105ae5780638da5cb5b146105f257806395d89b411461062657610142565b806323b872dd1161010a57806323b872dd146102f15780632f745c591461035f57806342842e0e146103c15780634f6ccce71461042f5780636352211e146104715780636c0360eb146104c957610142565b806301ffc9a71461014757806306fdde03146101aa578063081812fc1461022d578063095ea7b31461028557806318160ddd146102d3575b600080fd5b6101926004803603602081101561015d57600080fd5b8101908080357bffffffffffffffffffffffffffffffffffffffffffffffffffffffff191690602001909291905050506109e6565b60405180821515815260200191505060405180910390f35b6101b2610a4d565b6040518080602001828103825283818151815260200191508051906020019080838360005b838110156101f25780820151818401526020810190506101d7565b50505050905090810190601f16801561021f5780820380516001836020036101000a031916815260200191505b509250505060405180910390f35b6102596004803603602081101561024357600080fd5b8101908080359060200190929190505050610aef565b604051808273ffffffffffffffffffffffffffffffffffffffff16815260200191505060405180910390f35b6102d16004803603604081101561029b57600080fd5b81019080803573ffffffffffffffffffffffffffffffffffffffff16906020019092919080359060200190929190505050610b8a565b005b6102db610cce565b6040518082815260200191505060405180910390f35b61035d6004803603606081101561030757600080fd5b81019080803573ffffffffffffffffffffffffffffffffffffffff169060200190929190803573ffffffffffffffffffffffffffffffffffffffff16906020019092919080359060200190929190505050610cdf565b005b6103ab6004803603604081101561037557600080fd5b81019080803573ffffffffffffffffffffffffffffffffffffffff16906020019092919080359060200190929190505050610d55565b6040518082815260200191505060405180910390f35b61042d600480360360608110156103d757600080fd5b81019080803573ffffffffffffffffffffffffffffffffffffffff169060200190929190803573ffffffffffffffffffffffffffffffffffffffff16906020019092919080359060200190929190505050610db0565b005b61045b6004803603602081101561044557600080fd5b8101908080359060200190929190505050610dd0565b6040518082815260200191505060405180910390f35b61049d6004803603602081101561048757600080fd5b8101908080359060200190929190505050610df3565b604051808273ffffffffffffffffffffffffffffffffffffffff16815260200191505060405180910390f35b6104d1610e2a565b6040518080602001828103825283818151815260200191508051906020019080838360005b838110156105115780820151818401526020810190506104f6565b50505050905090810190601f16801561053e5780820380516001836020036101000a031916815260200191505b509250505060405180910390f35b61058e6004803603602081101561056257600080fd5b81019080803573ffffffffffffffffffffffffffffffffffffffff169060200190929190505050610ecc565b6040518082815260200191505060405180910390f35b6105ac610fa1565b005b6105f0600480360360208110156105c457600080fd5b81019080803573ffffffffffffffffffffffffffffffffffffffff169060200190929190505050611111565b005b6105fa6111e2565b604051808273ffffffffffffffffffffffffffffffffffffffff16815260200191505060405180910390f35b61062e61120c565b6040518080602001828103825283818151815260200191508051906020019080838360005b8381101561066e578082015181840152602081019050610653565b50505050905090810190601f16801561069b5780820380516001836020036101000a031916815260200191505b509250505060405180910390f35b6106f7600480360360408110156106bf57600080fd5b81019080803573ffffffffffffffffffffffffffffffffffffffff1690602001909291908035151590602001909291905050506112ae565b005b6107fc6004803603608081101561070f57600080fd5b81019080803573ffffffffffffffffffffffffffffffffffffffff169060200190929190803573ffffffffffffffffffffffffffffffffffffffff169060200190929190803590602001909291908035906020019064010000000081111561077657600080fd5b82018360208201111561078857600080fd5b803590602001918460018302840111640100000000831117156107aa57600080fd5b91908080601f016020809104026020016040519081016040528093929190818152602001838380828437600081840152601f19601f820116905080830192505050505050509192919290505050611464565b005b61082a6004803603602081101561081457600080fd5b81019080803590602001909291905050506114dc565b6040518080602001828103825283818151815260200191508051906020019080838360005b8381101561086a57808201518184015260208101905061084f565b50505050905090810190601f1680156108975780820380516001836020036101000a031916815260200191505b509250505060405180910390f35b6108ad6115b2565b6040518080602001828103825283818151815260200191508051906020019080838360005b838110156108ed5780820151818401526020810190506108d2565b50505050905090810190601f16801561091a5780820380516001836020036101000a031916815260200191505b509250505060405180910390f35b61098a6004803603604081101561093e57600080fd5b81019080803573ffffffffffffffffffffffffffffffffffffffff169060200190929190803573ffffffffffffffffffffffffffffffffffffffff1690602001909291905050506115d2565b60405180821515815260200191505060405180910390f35b6109e4600480360360208110156109b857600080fd5b81019080803573ffffffffffffffffffffffffffffffffffffffff1690602001909291905050506116ed565b005b6000806000837bffffffffffffffffffffffffffffffffffffffffffffffffffffffff19167bffffffffffffffffffffffffffffffffffffffffffffffffffffffff1916815260200190815260200160002060009054906101000a900460ff169050919050565b606060068054600181600116156101000203166002900480601f016020809104026020016040519081016040528092919081815260200182805460018160011615610100020316600290048015610ae55780601f10610aba57610100808354040283529160200191610ae5565b820191906000526020600020905b815481529060010190602001808311610ac857829003601f168201915b5050505050905090565b6000610afa826118e2565b610b4f576040517f08c379a000000000000000000000000000000000000000000000000000000000815260040180806020018281038252602c815260200180612e4b602c913960400191505060405180910390fd5b6004600083815260200190815260200160002060009054906101000a900473ffffffffffffffffffffffffffffffffffffffff169050919050565b6000610b9582610df3565b90508073ffffffffffffffffffffffffffffffffffffffff168373ffffffffffffffffffffffffffffffffffffffff161415610c1c576040517f08c379a0000000000000000000000000000000000000000000000000000000008152600401808060200182810382526021815260200180612ed96021913960400191505060405180910390fd5b8073ffffffffffffffffffffffffffffffffffffffff16610c3b6118ff565b73ffffffffffffffffffffffffffffffffffffffff161480610c6a5750610c6981610c646118ff565b611907565b5b610cbf576040517f08c379a0000000000000000000000000000000000000000000000000000000008152600401808060200182810382526038815260200180612d9e6038913960400191505060405180910390fd5b610cc9838361199b565b505050565b6000610cda6002611a54565b905090565b610cf0610cea6118ff565b82611a69565b610d45576040517f08c379a0000000000000000000000000000000000000000000000000000000008152600401808060200182810382526031815260200180612efa6031913960400191505060405180910390fd5b610d50838383611b5d565b505050565b6000610da882600160008673ffffffffffffffffffffffffffffffffffffffff1673ffffffffffffffffffffffffffffffffffffffff168152602001908152602001600020611da090919063ffffffff16565b905092915050565b610dcb83838360405180602001604052806000815250611464565b505050565b600080610de7836002611dba90919063ffffffff16565b50905080915050919050565b6000610e2382604051806060016040528060298152602001612e00602991396002611de69092919063ffffffff16565b9050919050565b606060098054600181600116156101000203166002900480601f016020809104026020016040519081016040528092919081815260200182805460018160011615610100020316600290048015610ec25780601f10610e9757610100808354040283529160200191610ec2565b820191906000526020600020905b815481529060010190602001808311610ea557829003601f168201915b5050505050905090565b60008073ffffffffffffffffffffffffffffffffffffffff168273ffffffffffffffffffffffffffffffffffffffff161415610f53576040517f08c379a000000000000000000000000000000000000000000000000000000000815260040180806020018281038252602a815260200180612dd6602a913960400191505060405180910390fd5b610f9a600160008473ffffffffffffffffffffffffffffffffffffffff1673ffffffffffffffffffffffffffffffffffffffff168152602001908152602001600020611e05565b9050919050565b610fa96118ff565b73ffffffffffffffffffffffffffffffffffffffff16610fc76111e2565b73ffffffffffffffffffffffffffffffffffffffff1614611050576040517f08c379a00000000000000000000000000000000000000000000000000000000081526004018080602001828103825260208152602001807f4f776e61626c653a2063616c6c6572206973206e6f7420746865206f776e657281525060200191505060405180910390fd5b600073ffffffffffffffffffffffffffffffffffffffff16600a60009054906101000a900473ffffffffffffffffffffffffffffffffffffffff1673ffffffffffffffffffffffffffffffffffffffff167f8be0079c531659141344cd1fd0a4f28419497f9722a3daafe3b4186f6b6457e060405160405180910390a36000600a60006101000a81548173ffffffffffffffffffffffffffffffffffffffff021916908373ffffffffffffffffffffffffffffffffffffffff160217905550565b6111196118ff565b73ffffffffffffffffffffffffffffffffffffffff166111376111e2565b73ffffffffffffffffffffffffffffffffffffffff16146111c0576040517f08c379a00000000000000000000000000000000000000000000000000000000081526004018080602001828103825260208152602001807f4f776e61626c653a2063616c6c6572206973206e6f7420746865206f776e657281525060200191505060405180910390fd5b60006111ca611e1a565b90506111d68282611e40565b6111de611e5e565b5050565b6000600a60009054906101000a900473ffffffffffffffffffffffffffffffffffffffff16905090565b606060078054600181600116156101000203166002900480601f0160208091040260200160405190810160405280929190818152602001828054600181600116156101000203166002900480156112a45780601f10611279576101008083540402835291602001916112a4565b820191906000526020600020905b81548152906001019060200180831161128757829003601f168201915b5050505050905090565b6112b66118ff565b73ffffffffffffffffffffffffffffffffffffffff168273ffffffffffffffffffffffffffffffffffffffff161415611357576040517f08c379a00000000000000000000000000000000000000000000000000000000081526004018080602001828103825260198152602001807f4552433732313a20617070726f766520746f2063616c6c65720000000000000081525060200191505060405180910390fd5b80600560006113646118ff565b73ffffffffffffffffffffffffffffffffffffffff1673ffffffffffffffffffffffffffffffffffffffff16815260200190815260200160002060008473ffffffffffffffffffffffffffffffffffffffff1673ffffffffffffffffffffffffffffffffffffffff16815260200190815260200160002060006101000a81548160ff0219169083151502179055508173ffffffffffffffffffffffffffffffffffffffff166114116118ff565b73ffffffffffffffffffffffffffffffffffffffff167f17307eab39ab6107e8899845ad3d59bd9653f200f220920489ca2b5937696c318360405180821515815260200191505060405180910390a35050565b61147561146f6118ff565b83611a69565b6114ca576040517f08c379a0000000000000000000000000000000000000000000000000000000008152600401808060200182810382526031815260200180612efa6031913960400191505060405180910390fd5b6114d684848484611e72565b50505050565b60606114e66115b2565b6114ef83611ee4565b6040516020018083805190602001908083835b602083106115255780518252602082019150602081019050602083039250611502565b6001836020036101000a03801982511681845116808217855250505050505090500182805190602001908083835b602083106115765780518252602082019150602081019050602083039250611553565b6001836020036101000a038019825116818451168082178552505050505050905001925050506040516020818303038152906040529050919050565b6060604051806060016040528060398152602001612ea060399139905090565b600080600b60009054906101000a900473ffffffffffffffffffffffffffffffffffffffff1690508273ffffffffffffffffffffffffffffffffffffffff168173ffffffffffffffffffffffffffffffffffffffff1663c4552791866040518263ffffffff1660e01b8152600401808273ffffffffffffffffffffffffffffffffffffffff16815260200191505060206040518083038186803b15801561167857600080fd5b505afa15801561168c573d6000803e3d6000fd5b505050506040513d60208110156116a257600080fd5b810190808051906020019092919050505073ffffffffffffffffffffffffffffffffffffffff1614156116d95760019150506116e7565b6116e38484611907565b9150505b92915050565b6116f56118ff565b73ffffffffffffffffffffffffffffffffffffffff166117136111e2565b73ffffffffffffffffffffffffffffffffffffffff161461179c576040517f08c379a00000000000000000000000000000000000000000000000000000000081526004018080602001828103825260208152602001807f4f776e61626c653a2063616c6c6572206973206e6f7420746865206f776e657281525060200191505060405180910390fd5b600073ffffffffffffffffffffffffffffffffffffffff168173ffffffffffffffffffffffffffffffffffffffff161415611822576040517f08c379a0000000000000000000000000000000000000000000000000000000008152600401808060200182810382526026815260200180612d026026913960400191505060405180910390fd5b8073ffffffffffffffffffffffffffffffffffffffff16600a60009054906101000a900473ffffffffffffffffffffffffffffffffffffffff1673ffffffffffffffffffffffffffffffffffffffff167f8be0079c531659141344cd1fd0a4f28419497f9722a3daafe3b4186f6b6457e060405160405180910390a380600a60006101000a81548173ffffffffffffffffffffffffffffffffffffffff021916908373ffffffffffffffffffffffffffffffffffffffff16021790555050565b60006118f882600261202b90919063ffffffff16565b9050919050565b600033905090565b6000600560008473ffffffffffffffffffffffffffffffffffffffff1673ffffffffffffffffffffffffffffffffffffffff16815260200190815260200160002060008373ffffffffffffffffffffffffffffffffffffffff1673ffffffffffffffffffffffffffffffffffffffff16815260200190815260200160002060009054906101000a900460ff16905092915050565b816004600083815260200190815260200160002060006101000a81548173ffffffffffffffffffffffffffffffffffffffff021916908373ffffffffffffffffffffffffffffffffffffffff160217905550808273ffffffffffffffffffffffffffffffffffffffff16611a0e83610df3565b73ffffffffffffffffffffffffffffffffffffffff167f8c5be1e5ebec7d5bd14f71427d1e84f3dd0314c0f7b2291e5b200ac8c7c3b92560405160405180910390a45050565b6000611a6282600001612045565b9050919050565b6000611a74826118e2565b611ac9576040517f08c379a000000000000000000000000000000000000000000000000000000000815260040180806020018281038252602c815260200180612d72602c913960400191505060405180910390fd5b6000611ad483610df3565b90508073ffffffffffffffffffffffffffffffffffffffff168473ffffffffffffffffffffffffffffffffffffffff161480611b4357508373ffffffffffffffffffffffffffffffffffffffff16611b2b84610aef565b73ffffffffffffffffffffffffffffffffffffffff16145b80611b545750611b538185611907565b5b91505092915050565b8273ffffffffffffffffffffffffffffffffffffffff16611b7d82610df3565b73ffffffffffffffffffffffffffffffffffffffff1614611be9576040517f08c379a0000000000000000000000000000000000000000000000000000000008152600401808060200182810382526029815260200180612e776029913960400191505060405180910390fd5b600073ffffffffffffffffffffffffffffffffffffffff168273ffffffffffffffffffffffffffffffffffffffff161415611c6f576040517f08c379a0000000000000000000000000000000000000000000000000000000008152600401808060200182810382526024815260200180612d286024913960400191505060405180910390fd5b611c7a838383612056565b611c8560008261199b565b611cd681600160008673ffffffffffffffffffffffffffffffffffffffff1673ffffffffffffffffffffffffffffffffffffffff16815260200190815260200160002061205b90919063ffffffff16565b50611d2881600160008573ffffffffffffffffffffffffffffffffffffffff1673ffffffffffffffffffffffffffffffffffffffff16815260200190815260200160002061207590919063ffffffff16565b50611d3f8183600261208f9092919063ffffffff16565b50808273ffffffffffffffffffffffffffffffffffffffff168473ffffffffffffffffffffffffffffffffffffffff167fddf252ad1be2c89b69c2b068fc378daa952ba7f163c4a11628f55a4df523b3ef60405160405180910390a4505050565b6000611daf83600001836120c4565b60001c905092915050565b600080600080611dcd8660000186612147565b915091508160001c8160001c9350935050509250929050565b6000611df9846000018460001b846121e0565b60001c90509392505050565b6000611e13826000016122d6565b9050919050565b6000806000611e2c600c5460016122e7565b915091508115611e3857fe5b809250505090565b611e5a828260405180602001604052806000815250612316565b5050565b600c60008154809291906001019190505550565b611e7d848484611b5d565b611e8984848484612387565b611ede576040517f08c379a0000000000000000000000000000000000000000000000000000000008152600401808060200182810382526032815260200180612cd06032913960400191505060405180910390fd5b50505050565b60606000821415611f2c576040518060400160405280600181526020017f30000000000000000000000000000000000000000000000000000000000000008152509050612026565b600082905060005b60008214611f56578080600101915050600a8281611f4e57fe5b049150611f34565b60008167ffffffffffffffff81118015611f6f57600080fd5b506040519080825280601f01601f191660200182016040528015611fa25781602001600182028036833780820191505090505b50905060006001830390508593505b6000841461201e57600a8481611fc357fe5b0660300160f81b82828060019003935081518110611fdd57fe5b60200101907effffffffffffffffffffffffffffffffffffffffffffffffffffffffffffff1916908160001a905350600a848161201657fe5b049350611fb1565b819450505050505b919050565b600061203d836000018360001b6125a0565b905092915050565b600081600001805490509050919050565b505050565b600061206d836000018360001b6125c3565b905092915050565b6000612087836000018360001b6126ab565b905092915050565b60006120bb846000018460001b8473ffffffffffffffffffffffffffffffffffffffff1660001b61271b565b90509392505050565b600081836000018054905011612125576040517f08c379a0000000000000000000000000000000000000000000000000000000008152600401808060200182810382526022815260200180612cae6022913960400191505060405180910390fd5b82600001828154811061213457fe5b9060005260206000200154905092915050565b600080828460000180549050116121a9576040517f08c379a0000000000000000000000000000000000000000000000000000000008152600401808060200182810382526022815260200180612e296022913960400191505060405180910390fd5b60008460000184815481106121ba57fe5b906000526020600020906002020190508060000154816001015492509250509250929050565b600080846001016000858152602001908152602001600020549050600081141583906122a7576040517f08c379a00000000000000000000000000000000000000000000000000000000081526004018080602001828103825283818151815260200191508051906020019080838360005b8381101561226c578082015181840152602081019050612251565b50505050905090810190601f1680156122995780820380516001836020036101000a031916815260200191505b509250505060405180910390fd5b508460000160018203815481106122ba57fe5b9060005260206000209060020201600101549150509392505050565b600081600001805490509050919050565b600080600083850190508481101561230657600080925092505061230f565b60018192509250505b9250929050565b61232083836127f7565b61232d6000848484612387565b612382576040517f08c379a0000000000000000000000000000000000000000000000000000000008152600401808060200182810382526032815260200180612cd06032913960400191505060405180910390fd5b505050565b60006123a88473ffffffffffffffffffffffffffffffffffffffff166129eb565b6123b55760019050612598565b600061251f63150b7a0260e01b6123ca6118ff565b888787604051602401808573ffffffffffffffffffffffffffffffffffffffff1681526020018473ffffffffffffffffffffffffffffffffffffffff16815260200183815260200180602001828103825283818151815260200191508051906020019080838360005b8381101561244e578082015181840152602081019050612433565b50505050905090810190601f16801561247b5780820380516001836020036101000a031916815260200191505b5095505050505050604051602081830303815290604052907bffffffffffffffffffffffffffffffffffffffffffffffffffffffff19166020820180517bffffffffffffffffffffffffffffffffffffffffffffffffffffffff8381831617835250505050604051806060016040528060328152602001612cd0603291398773ffffffffffffffffffffffffffffffffffffffff166129fe9092919063ffffffff16565b9050600081806020019051602081101561253857600080fd5b8101908080519060200190929190505050905063150b7a0260e01b7bffffffffffffffffffffffffffffffffffffffffffffffffffffffff1916817bffffffffffffffffffffffffffffffffffffffffffffffffffffffff191614925050505b949350505050565b600080836001016000848152602001908152602001600020541415905092915050565b6000808360010160008481526020019081526020016000205490506000811461269f576000600182039050600060018660000180549050039050600086600001828154811061260e57fe5b906000526020600020015490508087600001848154811061262b57fe5b906000526020600020018190555060018301876001016000838152602001908152602001600020819055508660000180548061266357fe5b600190038181906000526020600020016000905590558660010160008781526020019081526020016000206000905560019450505050506126a5565b60009150505b92915050565b60006126b78383612a16565b612710578260000182908060018154018082558091505060019003906000526020600020016000909190919091505582600001805490508360010160008481526020019081526020016000208190555060019050612715565b600090505b92915050565b60008084600101600085815260200190815260200160002054905060008114156127c2578460000160405180604001604052808681526020018581525090806001815401808255809150506001900390600052602060002090600202016000909190919091506000820151816000015560208201518160010155505084600001805490508560010160008681526020019081526020016000208190555060019150506127f0565b828560000160018303815481106127d557fe5b90600052602060002090600202016001018190555060009150505b9392505050565b600073ffffffffffffffffffffffffffffffffffffffff168273ffffffffffffffffffffffffffffffffffffffff16141561289a576040517f08c379a00000000000000000000000000000000000000000000000000000000081526004018080602001828103825260208152602001807f4552433732313a206d696e7420746f20746865207a65726f206164647265737381525060200191505060405180910390fd5b6128a3816118e2565b15612916576040517f08c379a000000000000000000000000000000000000000000000000000000000815260040180806020018281038252601c8152602001807f4552433732313a20746f6b656e20616c7265616479206d696e7465640000000081525060200191505060405180910390fd5b61292260008383612056565b61297381600160008573ffffffffffffffffffffffffffffffffffffffff1673ffffffffffffffffffffffffffffffffffffffff16815260200190815260200160002061207590919063ffffffff16565b5061298a8183600261208f9092919063ffffffff16565b50808273ffffffffffffffffffffffffffffffffffffffff16600073ffffffffffffffffffffffffffffffffffffffff167fddf252ad1be2c89b69c2b068fc378daa952ba7f163c4a11628f55a4df523b3ef60405160405180910390a45050565b600080823b905060008111915050919050565b6060612a0d8484600085612a39565b90509392505050565b600080836001016000848152602001908152602001600020541415905092915050565b606082471015612a94576040517f08c379a0000000000000000000000000000000000000000000000000000000008152600401808060200182810382526026815260200180612d4c6026913960400191505060405180910390fd5b612a9d856129eb565b612b0f576040517f08c379a000000000000000000000000000000000000000000000000000000000815260040180806020018281038252601d8152602001807f416464726573733a2063616c6c20746f206e6f6e2d636f6e747261637400000081525060200191505060405180910390fd5b6000808673ffffffffffffffffffffffffffffffffffffffff1685876040518082805190602001908083835b60208310612b5e5780518252602082019150602081019050602083039250612b3b565b6001836020036101000a03801982511681845116808217855250505050505090500191505060006040518083038185875af1925050503d8060008114612bc0576040519150601f19603f3d011682016040523d82523d6000602084013e612bc5565b606091505b5091509150612bd5828286612be1565b92505050949350505050565b60608315612bf157829050612ca6565b600083511115612c045782518084602001fd5b816040517f08c379a00000000000000000000000000000000000000000000000000000000081526004018080602001828103825283818151815260200191508051906020019080838360005b83811015612c6b578082015181840152602081019050612c50565b50505050905090810190601f168015612c985780820380516001836020036101000a031916815260200191505b509250505060405180910390fd5b939250505056fe456e756d657261626c655365743a20696e646578206f7574206f6620626f756e64734552433732313a207472616e7366657220746f206e6f6e20455243373231526563656976657220696d706c656d656e7465724f776e61626c653a206e6577206f776e657220697320746865207a65726f20616464726573734552433732313a207472616e7366657220746f20746865207a65726f2061646472657373416464726573733a20696e73756666696369656e742062616c616e636520666f722063616c6c4552433732313a206f70657261746f7220717565727920666f72206e6f6e6578697374656e7420746f6b656e4552433732313a20617070726f76652063616c6c6572206973206e6f74206f776e6572206e6f7220617070726f76656420666f7220616c6c4552433732313a2062616c616e636520717565727920666f7220746865207a65726f20616464726573734552433732313a206f776e657220717565727920666f72206e6f6e6578697374656e7420746f6b656e456e756d657261626c654d61703a20696e646578206f7574206f6620626f756e64734552433732313a20617070726f76656420717565727920666f72206e6f6e6578697374656e7420746f6b656e4552433732313a207472616e73666572206f6620746f6b656e2074686174206973206e6f74206f776e68747470733a2f2f6f70656e7365612d6372656174757265732d6170692e6865726f6b756170702e636f6d2f6170692f63726561747572652f4552433732313a20617070726f76616c20746f2063757272656e74206f776e65724552433732313a207472616e736665722063616c6c6572206973206e6f74206f776e6572206e6f7220617070726f766564a2646970667358221220b86fe62ed0370839471f2f8f344501c347a97718e03336d94a8ffe2e9893aa1464736f6c63430007060033",
  "immutableReferences": {},
  "source": "// SPDX-License-Identifier: MIT\r\npragma solidity ^0.7.1;\r\n\r\nimport \"@openzeppelin/contracts/access/Ownable.sol\";\r\nimport \"./ERC721Token.sol\";\r\n\r\n/**\r\n * @title Creature\r\n * Creature - a contract for my non-fungible creatures.\r\n */\r\n\r\ncontract Creature is ERC721Token {\r\n  constructor(address _proxyRegistryAddress) ERC721Token(\"FMAToken\", \"SYS\", _proxyRegistryAddress) {  }\r\n\r\n  function baseTokenURI() override public pure returns (string memory) {\r\n    return \"https://opensea-creatures-api.herokuapp.com/api/creature/\";\r\n  }\r\n}",
  "sourcePath": "C:/xampp/htdocs/sc/class0402/NFT_FACTORY/contracts/Creature.sol",
  "compiler": {
    "name": "solc",
    "version": "0.7.6+commit.7338295f.Emscripten.clang"
  },
  "schemaVersion": "3.3.3",
  "updatedAt": "2021-02-14T16:57:12.311Z",
  "devdoc": {
    "kind": "dev",
    "methods": {
      "approve(address,uint256)": {
        "details": "See {IERC721-approve}."
      },
      "balanceOf(address)": {
        "details": "See {IERC721-balanceOf}."
      },
      "baseURI()": {
        "details": "Returns the base URI set via {_setBaseURI}. This will be automatically added as a prefix in {tokenURI} to each token's URI, or to the token ID if no specific URI is set for that token ID."
      },
      "getApproved(uint256)": {
        "details": "See {IERC721-getApproved}."
      },
      "mintTo(address)": {
        "details": "Mints a token to an address with a tokenURI.",
        "params": {
          "_to": "address of the future owner of the token"
        }
      },
      "name()": {
        "details": "See {IERC721Metadata-name}."
      },
      "owner()": {
        "details": "Returns the address of the current owner."
      },
      "ownerOf(uint256)": {
        "details": "See {IERC721-ownerOf}."
      },
      "renounceOwnership()": {
        "details": "Leaves the contract without owner. It will not be possible to call `onlyOwner` functions anymore. Can only be called by the current owner. NOTE: Renouncing ownership will leave the contract without an owner, thereby removing any functionality that is only available to the owner."
      },
      "safeTransferFrom(address,address,uint256)": {
        "details": "See {IERC721-safeTransferFrom}."
      },
      "safeTransferFrom(address,address,uint256,bytes)": {
        "details": "See {IERC721-safeTransferFrom}."
      },
      "setApprovalForAll(address,bool)": {
        "details": "See {IERC721-setApprovalForAll}."
      },
      "supportsInterface(bytes4)": {
        "details": "See {IERC165-supportsInterface}. Time complexity O(1), guaranteed to always use less than 30 000 gas."
      },
      "symbol()": {
        "details": "See {IERC721Metadata-symbol}."
      },
      "tokenByIndex(uint256)": {
        "details": "See {IERC721Enumerable-tokenByIndex}."
      },
      "tokenOfOwnerByIndex(address,uint256)": {
        "details": "See {IERC721Enumerable-tokenOfOwnerByIndex}."
      },
      "totalSupply()": {
        "details": "See {IERC721Enumerable-totalSupply}."
      },
      "transferFrom(address,address,uint256)": {
        "details": "See {IERC721-transferFrom}."
      },
      "transferOwnership(address)": {
        "details": "Transfers ownership of the contract to a new account (`newOwner`). Can only be called by the current owner."
      }
    },
    "title": "Creature Creature - a contract for my non-fungible creatures.",
    "version": 1
  },
  "userdoc": {
    "kind": "user",
    "methods": {
      "isApprovedForAll(address,address)": {
        "notice": "Override isApprovedForAll to whitelist user's OpenSea proxy accounts to enable gas-less listings."
      }
    },
    "version": 1
  }
}