{
  "contractName": "ProxyRegistry",
  "abi": [
    {
      "inputs": [
        {
          "internalType": "address",
          "name": "",
          "type": "address"
        }
      ],
      "name": "proxies",
      "outputs": [
        {
          "internalType": "contract OwnableDelegateProxy",
          "name": "",
          "type": "address"
        }
      ],
      "stateMutability": "view",
      "type": "function"
    }
  ],
  "bytecode": "0x608060405234801561001057600080fd5b50610101806100206000396000f3fe6080604052348015600f57600080fd5b506004361060285760003560e01c8063c455279114602d575b600080fd5b606c60048036036020811015604157600080fd5b81019080803573ffffffffffffffffffffffffffffffffffffffff1690602001909291905050506098565b604051808273ffffffffffffffffffffffffffffffffffffffff16815260200191505060405180910390f35b60006020528060005260406000206000915054906101000a900473ffffffffffffffffffffffffffffffffffffffff168156fea264697066735822122045e039389c93a5e823e746fc011ec16dcf062c0da58077487e10d91968de497564736f6c63430007060033",
  "immutableReferences": {},
  "source": "// SPDX-License-Identifier: MIT\r\npragma solidity >=0.5.0 <0.8.0;\r\n\r\nimport '@openzeppelin/contracts/token/ERC721/ERC721.sol';\r\nimport '@openzeppelin/contracts/access/Ownable.sol';\r\nimport '@openzeppelin/contracts/math/SafeMath.sol';\r\nimport '@openzeppelin/contracts/utils/Strings.sol';\r\n\r\ncontract OwnableDelegateProxy { }\r\n\r\ncontract ProxyRegistry {\r\n    mapping(address => OwnableDelegateProxy) public proxies;\r\n}\r\n\r\ncontract ERC721Token is ERC721, Ownable {\r\n  using Strings for string;\r\n\r\n  address proxyRegistryAddress;\r\n  uint256 private _currentTokenId = 0;\r\n\r\n  constructor(string memory _name, string memory _symbol, address _proxyRegistryAddress) ERC721(_name, _symbol) {\r\n    proxyRegistryAddress = _proxyRegistryAddress;\r\n  }\r\n\r\n  /**\r\n    * @dev Mints a token to an address with a tokenURI.\r\n    * @param _to address of the future owner of the token\r\n    */\r\n  function mintTo(address _to) public onlyOwner {\r\n    uint256 newTokenId = _getNextTokenId();\r\n    _safeMint(_to, newTokenId);\r\n    _incrementTokenId();\r\n  }\r\n\r\n  /**\r\n    * @dev calculates the next token ID based on value of _currentTokenId \r\n    * @return uint256 for the next token ID\r\n    */\r\n  function _getNextTokenId() private view returns (uint256) {\r\n    (bool _overflow, uint256 _sum) = SafeMath.tryAdd(_currentTokenId, 1);\r\n    assert(!_overflow);\r\n    return _sum;\r\n  }\r\n\r\n  /**\r\n    * @dev increments the value of _currentTokenId \r\n    */\r\n  function _incrementTokenId() private  {\r\n    _currentTokenId++;\r\n  }\r\n\r\n  function baseTokenURI() virtual public view returns (string memory){}\r\n\r\n  function tokenURI(uint256 _tokenId) virtual override public view returns (string memory) {\r\n    return string(abi.encodePacked(baseTokenURI(), Strings.toString(_tokenId)));\r\n  }\r\n\r\n  /**\r\n   * Override isApprovedForAll to whitelist user's OpenSea proxy accounts to enable gas-less listings.\r\n   */\r\n  function isApprovedForAll(\r\n    address owner,\r\n    address operator\r\n  )\r\n    override\r\n    public\r\n    view\r\n    returns (bool)\r\n  {\r\n    // Whitelist OpenSea proxy contract for easy trading.\r\n    ProxyRegistry proxyRegistry = ProxyRegistry(proxyRegistryAddress);\r\n    if (address(proxyRegistry.proxies(owner)) == operator) {\r\n        return true;\r\n    }\r\n\r\n    return super.isApprovedForAll(owner, operator);\r\n  }\r\n}",
  "sourcePath": "C:\\xampp\\htdocs\\sc\\class0402\\NFT_FACTORY\\contracts\\ERC721Token.sol",
  "compiler": {
    "name": "solc",
    "version": "0.7.6+commit.7338295f.Emscripten.clang"
  },
  "schemaVersion": "3.3.3",
  "updatedAt": "2021-02-14T16:57:12.410Z",
  "devdoc": {
    "kind": "dev",
    "methods": {},
    "version": 1
  },
  "userdoc": {
    "kind": "user",
    "methods": {},
    "version": 1
  }
}